:020000040800F2
:10000000C00F002099010008A1010008A301000809
:10001000A5010008A7010008A901000800000000D0
:10002000000000000000000000000000AB0100081C
:10003000AD01000800000000AF010008871C0008A7
:10004000B3010008B3010008551D0008B301000802
:10005000B3010008B3010008B3010008B3010008B0
:10006000B3010008B3010008B3010008B3010008A0
:10007000B3010008B3010008B3010008B301000890
:10008000B3010008B3010008B3010008B301000880
:10009000B3010008B3010008B3010008B301000870
:1000A000B3010008B3010008B3010008B301000860
:1000B000B3010008B3010008B3010008B301000850
:1000C000B3010008B3010008B3010008B301000840
:1000D000B3010008B3010008B3010008B301000830
:1000E000B3010008B3010008B3010008B301000820
:1000F000B3010008B3010008B3010008B301000810
:10010000B3010008B3010008B3010008B3010008FF
:10011000B3010008B3010008B3010008B3010008EF
:10012000B3010008B3010008B3010008B3010008DF
:10013000B30100080000000000000000B301000847
:10014000B3010008B3010008B3010008811B0008D7
:10015000B3010008B3010008B3010008B3010008AF
:10016000B3010008B3010008B3010008B30100089F
:10017000B3010008B3010008000000000000000007
:10018000891A0008DFF80CD000F03CF8004800475E
:1001900099340008C00F00200648804706480047F1
:1001A000FEE7FEE7FEE7FEE7FEE7FEE7FEE7FEE727
:1001B000FEE7FEE70D1D00088501000840EA010387
:1001C0009B0703D009E008C9121F08C0042AFAD20D
:1001D00003E011F8013B00F8013B521EF9D27047D1
:1001E000D2B201E000F8012B491EFBD27047002279
:1001F000F6E710B513460A4604461946FFF7F0FF26
:10020000204610BD064C074D06E0E06840F00103B3
:1002100094E8070098471034AC42F6D3FFF7B6FFD6
:10022000203700084037000870B58C1810F8015BC3
:1002300015F0070301D110F8013B2A1106D110F87F
:10024000012B03E010F8016B01F8016B5B1EF9D183
:100250002B0705D40023521E0DD401F8013BFAE709
:1002600010F8013BCB1A921C03E013F8015B01F874
:10027000015B521EF9D5A142D8D3002070BD000009
:10028000054B01200021A3F1400219541154401CD8
:10029000C0B22228F9D370478007002000207047A1
:1002A000034902480860002070470000F004002065
:1002B000300100200648074A0068D0F818120020D4
:1002C0000B5C1354401CC0B24028F9D30020704787
:1002D000300100204007002010B5040002D06079F2
:1002E00010B106E0012010BD00202071204600F072
:1002F00007F80220607101206071002010BD00002D
:1003000008B500680649884208D10648016841F4EA
:1003100080510160006800F48050009008BD00002A
:10032000003002403038024031B500F0EFF80446AA
:1003300000F0ECF80099001B8842F9D338BD0000AA
:100340002DE9F84FDFF888B100224FF001084FF097
:10035000030A4FF00F090BF1040E00BF0B6808FAF7
:1003600002F42340A3426ED14D68022D01D0122D1C
:100370000ED1D50800EB850CDCF820505607F70E9F
:1003800009FA07F6B5430E69BE402E43CCF820604B
:10039000066855000F790AFA05FC07F0030726EAFC
:1003A0000C06AF40374307604E68012E05D0022E81
:1003B00003D0112E01D0122E0ED18668CF6826EA06
:1003C0000C06AF40374387604668A6430C79C4F3F8
:1003D0000014944034434460C4688E6824EA0C04DA
:1003E000AE402643C6604C68E4006AD5394C2568A7
:1003F00045F480452560246822F0030504F4804418
:100400000094354C2E19D6F8084895072F0F09FA95
:1004100007F5AC43314DA84201D1002529E0304D0C
:10042000A84201D1012524E02E4DA84201D1022588
:100430001FE02D4DA84201D103251AE02B4DA84203
:1004400002D1042515E03CE0294DA84201D1052543
:100450000FE0284DA84201D106250AE0264DA8420A
:1004600001D1072505E0254DA84201D1082500E06E
:100470000925BD402543C6F80858DBF800405D4615
:100480004E689C43F60300D51C432C60DEF8004008
:1004900075464E689C43B60300D51C432C600C4D3A
:1004A00008352C684E689C43F60200D51C432C602E
:1004B000074D0C352C684E689C43B60200D51C4392
:1004C0002C60521C102AFFF449AFBDE8F88F0000E1
:1004D000003C01404438024000300140000002402E
:1004E0000004024000080240000C024000100240DC
:1004F0000014024000180240001C0240002002408C
:100500000AB1816170470904FBE7000001480068F7
:10051000704700000000002002480168491C01608B
:1005200070470000000000200B4810B5016841F43E
:1005300000710160016841F480610160016841F46B
:1005400080710160032000F051F8002000F006F8EF
:1005500000F015F8002010BD003C024010B5044624
:1005600000F004FE4FF47A71B0FBF1F001F074FA80
:1005700000222146501E00F019F8002010BD10B5D1
:10058000032000F033F80022BDE810401146501E51
:1005900000F00CB800F01F020121914040098000DA
:1005A00000F1E020C0F8001170470000F0B40E4BDD
:1005B0001B680C46C3F30223C3F10705042D00D9C1
:1005C0000425191D072901D2002300E0DB1E0126A6
:1005D00006FA05F1491E214099409E40761E1640BC
:1005E0003143F0BC01F0BCBA0CED00E0064900F06C
:1005F000070208684FF6FF03184040EA0220034A4A
:1006000010430860704700000CED00E00000FA05A0
:100610000068416200207047F0B500680023446A1A
:1006200031B1856A4FF4827604EB15444D1E0AE021
:1006300044EA024181620FE006EB8307C7595B1C65
:1006400004EB1744DBB2AB42F6DB4FF4807303EBF1
:10065000810144EA024242500020F0BDD0F8AC03D0
:1006600002F005B8C1EBC10200EB8202D0F8AC0386
:10067000D26B01F072BFC1EBC10200EB8202D0F875
:10068000AC03D2F8E02101F0BDBFD0F8AC0301F01B
:10069000F0BF10B504460A460B0601F07F00C0EB20
:1006A000C00104EB810101D5303101E001F5EA71AF
:1006B0000870D009487094F87803012809D0012007
:1006C00084F87803206802F0CBFA002084F87803DD
:1006D00010BD022010BD70B50A460446090602F09E
:1006E0007F0005D5C0EBC00104EB8101303105E08E
:1006F000C2EBC20104EB810101F5EA7100258D70A6
:100700000870D009487094F87803012809D00120B6
:1007100084F87803206802F05AFC84F878530020AB
:1007200070BD022070BD70B504460D460E0601F086
:100730007F00C0EBC00104EB810101D5303101E045
:1007400001F5EA71ED0908704D708A60CB7000D038
:10075000C8800025022B00D10D7194F87803012880
:1007600009D0012084F87803206802F0CDF92846EA
:1007700084F8785370BD022070BD000070B5044647
:100780000E4601F07F00C0EBC00104EB81010025A3
:10079000C1F8E021C1E97A3581F8D55181F8D40159
:1007A000206901F5EA71012800D10A6194F8780303
:1007B00001280DD0012084F878037006227C20687F
:1007C00008D002F065FC00BF84F87853002070BDAB
:1007D000022070BD02F03CFBF6E770B50D46044602
:1007E000090605F07F0005D5C0EBC00104EB8101CF
:1007F000303105E0C5EBC50104EB810101F5EA717B
:1008000001228A700870E809487094F8780301287A
:1008100007D084F87823206802F00BFC680602D029
:1008200007E0022070BD217C04F55F72206802F0B1
:10083000AFFB002084F8780370BD70B504460E4607
:1008400001F07F00C0EBC00104EB81010025CA6309
:10085000C1E91135012381F8313001F8300F2069E9
:10086000012800D10A6194F8780301280BD084F89C
:1008700078337006227C206807D002F009FC84F8E7
:100880007853002070BD022070BD02F0E1FAF6E757
:100890002DE9F84F044600680026054602F04CFD9D
:1008A000002873D1206802F070FD00286ED0206807
:1008B00002F06BFD80074FF0020A02D52168C1F8F3
:1008C00014A0206802F061FD010304F55F704FF091
:1008D000080900904DD5206802F039FD074646E032
:1008E000F80742D0F1B2206802F047FD8046C00709
:1008F00029D005EB46110120C1F8080B2069012819
:1009000011D1C6EBC60004EB8000D1F8101BD0F863
:10091000DC21C1F31201511AC0F8EC11D0F8E0113A
:100920001144C0F8E011F1B22046FFF7A4FE20699F
:10093000012808D13EB9D4F8E80120B92068012186
:10094000009A02F025FB5FEA087006D5204600F009
:1009500055FA05EB4611C1F8089B5FEAC86004D55B
:1009600005EB46111020C1F8080B7F08761C002FFC
:10097000B6D1206802F009FD40034FF0400B5DD571
:10098000206802F0DDFC0746002655E070E1F8071C
:1009900050D0F1B2206802F0E1FC8046C00725D0BB
:1009A0000120D5F8342800FA06F18A43C5F8342826
:1009B00005EB4611C1F808092069012807D1C6EBEB
:1009C000C60004EB8000D0E90E211144C163F1B2EE
:1009D0002046FFF747FE2069012807D136B9606C31
:1009E00020B920680121009A02F0D2FA5FEA08706B
:1009F00003D505EB4611C1F808995FEAC86004D534
:100A000005EB46111020C1F808095FEA486003D5DC
:100A100005EB4611C1F808B95FEA887003D505EB0C
:100A20004611C1F808A95FEA086003D5314620469F
:100A300001F0ACF87F08761C002FA8D1206802F0E6
:100A4000A4FC00280CDAD5F8040820F00100C5F851
:100A50000408204600F0B8F920684FF000414161D9
:100A6000206802F092FC00050AD5D5F80808C007F6
:100A700002D0204600F0DEF920684FF400614161A9
:100A8000206802F082FCC0044AD5D5F8040820F0A2
:100A90000100C5F804080021206802F01DFC0020B8
:100AA000FF2106E005EB4012C2F80819C2F8081B46
:100AB000401C62688242F5D84FF0FF30C5F8180834
:100AC000D5F81C0840F00110C5F81C08A06A60B1F8
:100AD000D5F8840840F00B00C5F88408D5F8440820
:100AE00040F00B00C5F844080BE0D5F8140840F0BE
:100AF0000B00C5F81408D5F8100840F00B00C5F835
:100B00001008D5F8000820F4FE60C5F80008217C24
:100B10002068009A02F03CFA21684FF48050486146
:100B2000206802F032FC80041BD5206802F02CF80B
:100B30002068C16821F47051C160206802F0DEFBBA
:100B400050B30320C4F814B0E0602068C16841F4D9
:100B5000A051C160204600F027F921684FF40050F1
:100B60004861206802F011FCC00640D52068816908
:100B700021F010018161D5F8208008F00F00C0EB52
:100B8000C00004EB8007C8F3434007F5EA7702286A
:100B90000CD006281CD025E00020E0604FF4007047
:100BA00060612068C16841F41051D2E747F6F071E6
:100BB00018EA010F16D0C8F30A1290462846F968C1
:100BC00002F0E7FBF8684044F860B869404408E088
:100BD00008222846009902F0DCFBB969C8F30A1024
:100BE0000844B8612068816941F010018161206882
:100BF00002F0CBFB000705D5204600F0E9F821689C
:100C0000C1F81490206802F0C0FBC00207D5F1B211
:100C1000204600F02FF821684FF4801048612068CA
:100C200002F0B3FB800207D5F1B2204600F026F8AF
:100C300021684FF400104861206802F0A6FB4000D4
:100C400006D52046FFF70AFD21684FF08040486135
:100C5000206802F09AFB40070AD5206845686807BB
:100C600002D52046FFF711FD206841682943416005
:100C7000BDE8F88FD0F8AC0301F044BDD0F8AC0368
:100C800001F042BDF0B589B004004FF0000556D028
:100C9000032084F87903204600F054F8206802F01D
:100CA000D1F804F1100120220F466846FFF786FABA
:100CB00094E80F0001F082FF0021206802F079FB28
:100CC00001260020C5EBC50104EB810181F83160EC
:100CD00001F8305FCD80C8708860C8606D1C4861C5
:100CE0000F2DEFD300214FF4827300BFC1EBC1027F
:100CF00004EB820203EB810582F8D50182F8D4115E
:100D0000D18682F8D701C2F8DC01C2F8E001C2F84E
:100D1000E80122685051491C0F29E7D320223946A7
:100D20006846FFF74BFA94E80F0001F0E9FF84F8FA
:100D30007963206801F0D7FF002009B0F0BD0120E1
:100D4000FBE7000000B5006887B0B0F1A04F25D1E7
:100D50004FF4C05000900220019000200290032028
:100D600003900A20049069460D48FFF7E9FA0D4800
:100D7000016841F0800101600A481030016841F4C7
:100D8000804101600068002200F480400590114617
:100D90004320FFF70BFC4320FFF7FCFB07B000BD2F
:100DA000000002403438024010B50446C0680121FA
:100DB00000B90021D4F8AC0301F0EAFCD4F8AC038C
:100DC000BDE8104001F0B3BCD0F8AC0301F0CEBCDC
:100DD000D0F8AC0301F0D0BC10B5044690F878030D
:100DE000012809D0012084F87803206802F0F7FA7E
:100DF000002084F8780310BD022010BDD0F8AC2389
:100E000000F55F71104601F0CDBC10B5044690F8B6
:100E1000780301280CD0012084F87803206801F0C1
:100E200056FF206802F042FA002084F8780310BDD3
:100E3000022010BD10B50446D0F8AC0301F0EDFC63
:100E40002068D0F8001E41F00101C0F8001E206AA1
:100E5000002804D00248016841F00601016010BD7D
:100E600010ED00E02DE9F843054600684FF0010958
:100E7000C1074FF0000601D1082833D1DFF82081E7
:100E8000C8F86860FFF742FB0746464C05E000BF24
:100E9000FFF73CFBC01B642861D820680001F7D431
:100EA00047F6C07191FAA1F16868B1FA81F1884002
:100EB0004FF0E04292FAA2F2A968B2FA82F29140AF
:100EC0000843384984310860C8F86890FFF71EFB72
:100ED000074604E0FFF71AFBC01B64283FD82068D0
:100EE0000001F7D52878400750D52E4840300168DA
:100EF00041F08051016000682B4C00F08050009060
:100F0000206840F480702060FFF700FB074604E093
:100F1000FFF7FCFAC01B642821D82068C005F7D56C
:100F2000204C70342068A98900F4407001F44071AD
:100F300088422BD020681D4920F44070C1F80090F1
:100F40000E602060800710D5FFF7E0FA064641F2F8
:100F5000883707E0FFF7DAFA801BB84202D903208E
:100F6000BDE8F88320688007F4D5E9680D48C1F32F
:100F700001220830032A0BD0016821F4F811016026
:100F80002068A989C1F30B01084320600020E7E72E
:100F90000268074B22F4F81219400A430260EFE797
:100FA000000047420038024000700040400E4742B7
:100FB000FFFCFF0F2DE9F047DFF8A8A105460E461C
:100FC000DAF80000684C00F007016748083406F0C2
:100FD000FF0941F28838B14254D28AF80090DAF819
:100FE000001001F00701B1426FD12978890705D5BA
:100FF0002168AA6821F0F001114321602978C9070E
:1010000028D06968012914D00068022914D080070B
:1010100000285ADA206820F0030008432060FFF718
:1010200075FA0646686801280ED00228474618D08F
:1010300023E000688003EBE78001E9E7FFF766FA49
:10104000801BB84201D964E047462068C0F38100A4
:101050000128F3D16EE000BFFFF758FA801BB842B9
:1010600057D82068C0F381000228F5D162E000BFA4
:10107000FFF74CFA801BB8424BD8206810F00C0FD9
:10108000F6D157E02978890705D52168AA6821F0AB
:10109000F001114321602978C90741D0696801290D
:1010A00014D00068022914D08007002840DA206894
:1010B00020F0030008432060FFF728FA074668681D
:1010C00001280ED0022818D026E031E00068800305
:1010D000EBE78001E9E700BFFFF718FAC11B4145C4
:1010E00017D82068C0F381000128F5D118E000BFAF
:1010F000FFF70CFAC11B41450BD82068C0F38100F3
:101100000228F5D10CE000BFFFF700FAC11B4145F2
:1011100002D90320BDE8F087206810F00C0FF3D14E
:101120008AF80090DAF8000000F00700B04201D021
:101130000120EFE72878400705D52068E96820F40A
:10114000E050084320602878000706D52068296908
:1011500020F4604040EAC10020600020FFF7FEF963
:101160000020D7E7003C02400038024000B500F004
:1011700017F808490968F02292FAA2F201F0F0018A
:10118000B2FA82F2D140044A515CC8400349086077
:1011900000BD00000838024010370008340100206C
:1011A00030B51948006810F00C01184812D0184CDE
:1011B00004290ED008290DD11349091F0A6802F02D
:1011C0003F030A68550247F6C07204D5B4FBF3F03A
:1011D00003E0204630BDB0FBF3F00B680968134014
:1011E00092FAA2F2B2FA82F2D34058434FF440325C
:1011F00092FAA2F201F44031B2FA82F2D140491CD3
:101200004900B0FBF1F030BD083802400024F40082
:10121000001BB7002DE9F84F04460078DFF818836B
:10122000C64DC0074FF0000648D0D8F80010404621
:10123000C1F38101012908D00068C0F381000228B0
:101240000AD1281D0068400206D52868800335D5DC
:10125000606800286FD031E0DFF8E09209F1020900
:1012600089F80060FFF752F9074604E0FFF74EF9EE
:10127000C01B64287ED828688003F7D4207989F8B9
:101280000000606868B1FFF741F9074605E000BF5C
:10129000FFF73CF9C01B6428ECD828688003F7D519
:1012A0000CE0FFF733F9074605E000BFFFF72EF922
:1012B000C01B6428DED828688003F7D42078A04FAC
:1012C00080074FF0010B46D5D8F80010404611F0CA
:1012D0000C0F4FF0F80A09D00068C0F38100022813
:1012E0000BD19548001F0068400206D4286880078B
:1012F00015D5E06801281ED111E0E068E0B1C7F81B
:1013000000B0FFF703F9814606E000BFFFF7FEF8E3
:10131000A0EB09006428ADD828688007F6D52868B6
:101320009AFAAAF22169B2FA82F220F0F80091400A
:10133000084328600FE0FCE03E60FFF7E7F88146D5
:1013400006E000BFFFF7E2F8A0EB0900642811D81F
:1013500028688007F6D42078000729D5DFF8D8A1BF
:10136000784861690AF16C0A99B1C0F800B0FFF7DA
:10137000CDF800E086E0814606E000BFFFF7C6F842
:10138000A0EB090064287DD8DAF800008007F5D5C5
:101390000EE00660FFF7BAF8814605E0FFF7B6F801
:1013A000A0EB090064286DD8DAF800008007F5D4B6
:1013B000207840075AD560483830016841F08051A4
:1013C00001600068DFF880A100F080500090DAF83A
:1013D000001041F48071CAF80010FFF797F88146B9
:1013E00006E000BFFFF792F8A0EB0900642849D897
:1013F000DAF80000C005F5D5DFF83C9109F168097D
:1014000089F80060FFF782F841F2883A009005E021
:10141000FFF77CF80099411A514533D8D9F80000FC
:101420008007F5D4207A89F80000A06878B1FFF72A
:101430006DF8009006E000BFFFF768F80099411AC8
:1014400051456ED8D9F800008007F5D50EE0FFF7BA
:101450005DF8009006E000BFFFF758F80099411AC8
:1014600051455ED8D9F800008007F5D4A069E8B3EB
:10147000D8F80010C1F3810102295AD002283E6633
:1014800005D000E04DE0FFF741F804464CE0FFF7DF
:101490003DF8064605E000BFFFF738F8801B6428DA
:1014A0003FD828688001F7D4D4E90701084347F6FC
:1014B000C07292FAA2F2616AB2FA82F29140A26A12
:1014C0004FF0FF3303EB52024FF4403393FAA3F390
:1014D000B3FA83F39A40114308434FF0706292FAD3
:1014E000A2F2E16AB2FA82F2914000E01FE0084302
:1014F0001149091F0860C7F860B0FFF707F80446F4
:1015000005E000BFFFF702F8001B642809D828682F
:101510008001F7D50BE000BFFEF7F8FF001B642841
:1015200002D90320BDE8F88F28688001F4D4002098
:10153000F8E70120F6E700000838024000380240D2
:1015400000004742800E4742007000407047000094
:101550002DE9F047044600790026894601280CD081
:10156000012727716079B046012808D05FF0010695
:1015700084F804803046BDE8F0870220FBE70220B3
:101580006071FEF7C3FF05460BE000BFFEF7BEFF2C
:10159000401B022805D90420607184F804800320D0
:1015A000E9E720684068C043C007EFD12068806841
:1015B000A060C9F800006771DAE710B5044600F1D1
:1015C0000801FFF7C5FF08B1002010BDA06810BDDD
:1015D00010B5044600684168C943890603D54068D0
:1015E000C043400608D4042060712046FFF7AEFFD8
:1015F00021686FF06000486020684168C943C907EE
:101600000ED1016821F00801016020688168A160A5
:101610006079042804D001206071204600F03EF873
:1016200010BD70B5040008D02079012807D001252D
:1016300025716079002620B107E0012070BD0220ED
:1016400070BD2671204600F00BF802206071206802
:10165000016841F00401016065712671002070BDD0
:1016600008B500680B49884212D10B48016841F067
:10167000400101600068002200F040000090114627
:101680005020FEF793FFBDE808405020FEF782BFD0
:1016900008BD00000008065034380240704770470B
:1016A00010B504460068C16809050CD580680004BF
:1016B00009D5204600F022F82068C16801F08001B9
:1016C00061F40861C1602068C16889040CD5006CB0
:1016D000400709D52046FFF7E2FF2068C16801F006
:1016E000800161F40251C16003494FF400100860A9
:1016F0000120607710BD0000143C014070470000DD
:1017000010B500680B4641680D480140080CD870C0
:10171000C1F304245C7001F03F049C70C1F34231BA
:10172000197052B900F07DFAD870587800F079FA43
:101730005870987800F075FA9870002010BD00007D
:101740003FFFFF0010B500680B4601680E480140DE
:10175000C1F305401870C1F306245C7001F07F04EA
:101760009C70402404EA1141D97052B900F059FA32
:101770001870587800F055FA5870987800F051FABF
:101780009870002010BD00007F7F7F0070B50400BE
:1017900002D0607F10B106E0012070BD00202077EC
:1017A000204600F041F8022060772168CA20486294
:1017B000216853204862204600F048FAFF210028A3
:1017C000206803D0416204206077E5E78268154B0A
:1017D0001A4082602268906863681843D4E904352F
:1017E0002B43184390602268E0681061206802690A
:1017F000238942EA034202612068C26822F0800223
:10180000C2602068026C22F4802202642068026CAC
:10181000A3691A43026420684162012060770020B6
:1018200070BD0000BFFF8FFF10B5006808498842F7
:101830000CD1084901200860002211460220FEF761
:10184000B5FEBDE810400220FEF7A4BE10BD0000AA
:10185000002800403C0E47422DE9F0470446007F37
:101860000B46012825D04FF0010984F81C90022076
:101870006077587802B300F0D4F9987800F0D1F985
:101880009878D97840EA014558781978000240EAFA
:10189000413005432168CA204862216853204862CC
:1018A000204600F0D3F90026FF274FF0040838BB8C
:1018B00019E00220BDE8F087C10603D500F0EF0073
:1018C0000A305870D87800F0B5F90204587800F062
:1018D000B1F942EA0022987800F0ACF90243187896
:1018E00042EA4035D6E70D4805402068456020684B
:1018F000C16821F08001C160204600F085F830B158
:101900002068476284F81D8026770120D2E720688E
:10191000476284F81D9026770020CBE73FFFFF0049
:101920002DE9F0470446007F0D46012811D04FF005
:10193000010A84F81CA002206077206800268068D5
:101940004FEA406042B100281ADA287800F069F9BD
:1019500017E00220BDE8F087002800DBEE70287851
:1019600000F068F90204687800F064F942EA0022A5
:10197000A87800F05FF90243E87842EA00470AE0FD
:10198000EE70A878297840EA01476878E978000283
:1019900040EA014007432168CA2048622168532079
:1019A0004862204600F052F94FF0FF084FF004095A
:1019B000C0B914480740206807602068816821F496
:1019C00080218160D5E90101084321688A681043BC
:1019D00088602068C16821F08001C160204600F065
:1019E00013F838B12168C1F8248084F81D90267757
:1019F0000120AFE72168C1F8248084F81DA0267774
:101A00000020A7E77F7F7F0070B504460068C168AB
:101A100021F0A001C160FEF779FD05464FF47A760A
:101A200007E000BFFEF772FD401BB04201D9032062
:101A300070BD2068C0688006F4D5002070BD4FF0EE
:101A4000E0210428086903D020F0040008617047F1
:101A500040F00400FAE7704710B5401EB0F1807FF7
:101A600001D3012010BD4FF0E02460610F21601709
:101A700000F076F80020A06107202061002010BD52
:101A800010B5FFF7E8FF10BD0148FFF7A1BD00004A
:101A90001407002070B5214886B00024016841F089
:101AA00004010160016801F004010591016841F041
:101AB00080010160016801F080010591016841F039
:101AC00001010160016801F001010591016841F027
:101AD000020101600068124E00F002000590002231
:101AE00004213046FEF70CFD002208213046FEF7A7
:101AF00007FD0C2000900125CDE9015469463046D0
:101B00000394FEF71DFC68038DE831006946054823
:101B10000394FEF715FC06B070BD0000303802409B
:101B2000000002400008024010B5002208490948A0
:101B300000F0F0FC0849074800F093FE074905480B
:101B400000F0DEFABDE81040024800F0D7BE000009
:101B5000C4000020F0040020080000202001002024
:101B60000907090E002806DA00F00F0000F1E02056
:101B700080F8141D704700F1E02080F800147047D1
:101B80000148FEF785BE0000400100202DE9F84F16
:101B90000F46C1EBC70100EB810582460668D5E917
:101BA0001101441AA86B3035A04200D20446E01C53
:101BB000C11700EB91704FEAA00806EB471919E036
:101BC000441AA868A04200D20446E01CC11700EBEA
:101BD00091704FEAA0089AF810000090A3B2FAB2F0
:101BE0003046E96801F00CFCE8682044E860A86928
:101BF0002044A861D9F8180981B2414505D9D5E931
:101C00000501814201D20028DAD1002C06DC012036
:101C1000D6F83418B8408143C6F834180020BDE81F
:101C2000F88F010901EB810100F00F0000EB41008A
:101C3000C0B27047002102E00A38C0B2491C0A282D
:101C4000FAD2090740EA11607047000070B50446F7
:101C50000068C168490614D44FF0FF31C160FEF737
:101C600055FC05464FF47A7607E000BFFEF74EFCC0
:101C7000401BB04201D9032070BD2068C0684006F7
:101C8000F4D5002070BD10B5FEF746FCBDE810404D
:101C9000FFF7F6BE10B596B001210520CDE9000191
:101CA000029102248905CDE906410C21CDE90A40C3
:101CB0000891F02109916846FFF7ACFA0F20CDE9B1
:101CC0000C0400200E904FF4A0500F90E0021090F2
:101CD00003210CA8FFF76EF90420119080011490E5
:101CE00011A8FFF7BFF8FFF741FA4FF47A71B0FB84
:101CF000F1F0FFF7B1FE0420FFF7A1FE002211462C
:101D0000501EFEF753FC16B010BD00000D480168D0
:101D100041F0010101600B4A0021083211600268A4
:101D2000094B1A400260031D084A1A60026822F437
:101D30008022026003480C300160054958060860A3
:101D40007047000000380240FFFFF6FE103000240C
:101D500008ED00E010B50748FFF7A2FC0648012295
:101D6000017841F040010170BDE8104004210348B2
:101D7000FEF7C6BB20070020A400002000000240A0
:101D80002DE9F04198B00025ADF84C50202109A86C
:101D9000FEF72DFA1C2102A81295FEF728FA4FF043
:101DA0000108ADF84480974C657004F1100709AE46
:101DB0009548FFF702FC6060606800F00F008DF846
:101DC00000006068C0F303108DF801006068C0F384
:101DD00003208DF802006068C0F303308DF8030023
:101DE0006068C0F303408DF804006068C0F30350DE
:101DF0008DF805006068C0F303608DF80600606828
:101E0000000F8DF80700002069461DF80020BDF87E
:101E10004C30BA5C1A44ADF84C201DF8002006EB9B
:101E2000420213885B1C1380401CC0B20828EBD30D
:101E30002DB99DF8000000F001008DF85000012040
:101E400001EB9002127800F00303DA4002F0010384
:101E50009DF850209342BDF8442001D1521C22E04D
:101E60001A2A04D3627842F0080262701DE0BDF8BD
:101E70004420062A02D90622ADF844209DF85020BD
:101E800002ABC2EBC20203EB4202BDF8443002EBEC
:101E9000430213885B1C13809DF8502082F00102DE
:101EA0008DF850204246ADF84420401CC0B2202896
:101EB000C6D36D1CADB2B5F51C7F7FF679AF00209F
:101EC00036F8101036F81020129B401C01FB02312E
:101ED000C0B212911028F3D308464C4901EB001010
:101EE0001290BDF84C0042F2FD51884205D3BDF876
:101EF0004C0042F62301884203D9607840F001008B
:101F00006070129842F63021884202D340498842DC
:101F100003D9607840F002006070BDF80A1040F606
:101F20000B10814267D3BDF80A2040F67D218A421A
:101F300061D8BDF8182082425DD3BDF818008842F0
:101F400059D8BDF80C1040F25A40814253D3BDF825
:101F50000C2040F26A518A424DD8BDF81A208242C4
:101F600049D3BDF81A00884245D8BDF80E1040F29A
:101F70000F2081423FD3BDF80E204FF435718A42C5
:101F800039D2BDF81C20824235D3BDF81C008842EE
:101F900031D2BDF81000F0282DD3BDF810104FF449
:101FA000C070814227D8BDF81E10F02923D3BDF898
:101FB0001E1081421FD8BDF8120067281BD3BDF840
:101FC0001200D12817D8BDF82000672813D3BDF818
:101FD0002000D1280FD8BDF8140067280BD3BDF816
:101FE0001400D12807D8BDF82200672803D3BDF814
:101FF0002200D12803D9607840F00400607018B046
:10200000BDE8F081A400002014070020C08782FEF4
:10201000C2850300D0F81802002180F8501008464D
:10202000704770B50546D0F81842D5F81C22617883
:10203000D26820789047402322460121284600F0AC
:102040006FFB002070BD10B50446812100F07EFAC0
:102050000121204600F07AFAD4F8180250B1D4F8E1
:102060001C0204F5067480688047206801F0ECF9D2
:1020700000202060002010BD10B5D0F81842E16C9F
:10208000012908D1D0F81C0223786178C26818466B
:1020900090470020E064002010BD0000292101804D
:1020A00000487047440000200A2101800048704722
:1020B0009800002070B506460025402303228121A8
:1020C00000F024FB402303220121304600F01EFBD8
:1020D000542001F0E7FAC6F8180278B1044600204F
:1020E00084F85000D6F81C024068804740232246FE
:1020F0000121304600F014FB284670BD0125FBE7A6
:1021000002460220002902D00020C2F81C127047AB
:1021100010B5134690F8FC41D0F81822032C09D1D1
:1021200092F8504034B9012482F850400A46812187
:1021300000F07CFB002010BD70B500220D78D0F8B7
:102140001832144615F0600526D0202D4CD14A785F
:10215000921E0A2A1CD2DFE802F010081B1B1B1B70
:102160001B140C05887818643EE0012203F140013D
:1021700031E04888000A586436E0012203F1440146
:1021800029E00122DA648A79194600F053F82BE03D
:1021900000F045F8022070BD4D78062D04D00A2DC0
:1021A0001CD00B2D20D11DE04B882225B5EB132F21
:1021B00007D1CA88262A00D92622D0F81C120C681A
:1021C00008E02125B5EB132F04D1CA88074C262A35
:1021D00000D92622214600F047F805E0012203F14C
:1021E0004801F8E788789864002070BD70000020EE
:1021F00010B5D0F8142252689047002010BD134645
:1022000010B50A46002100F08BFA002010BD1346DD
:1022100010B50A46002100F009FB002010BD10B5E2
:102220000446802100F0EBFA2046BDE81040002172
:1022300000F0E5BA10B50323C0F80821C0F8F43166
:10224000C0F80C2113460A46002100F069FA00206C
:1022500010BD10B505210023C0F8F4111A46194627
:1022600000F05EFA002010BD10B502238261C0F8B4
:10227000F431C26113460A46002100F0D7FA00206B
:1022800010BD10B504210023C0F8F4111A461946F8
:1022900000F0CCFA002010BD10B50A46024903A098
:1022A00000F015F9004810BDC00700204375737495
:1022B0006F6D2048494420436F6E666967000000D7
:1022C0001220088000487047E400002010B50A463C
:1022D000024903A000F0FBF8004810BDC007002031
:1022E000437573746F6D2048494420496E7465725C
:1022F00066616365000000000420088000487047A4
:10230000E000002010B50A46024903A000F0DFF803
:10231000004810BDC007002053544320434F4E5483
:102320004143540010B50A46024903A000F0CFF81B
:10233000004810BDC007002053544320434F4E5463
:1023400041435420437573746F6D2048756D616E01
:1023500020696E74657266616365000070B50A4637
:10236000154916A000F0B3F81B490020124B0924B0
:10237000C0F10B028D5CB4EB151F8D5C01D33026D0
:1023800000E0372606EB151503EB8006B5708D5C73
:102390008A5C05F00F05092D02F00F0203EB8005A2
:1023A00001D8303200E03732401C80B22A710C284C
:1023B000DED3014870BD0000C007002046464646F7
:1023C00046464646464646464646464646464646AD
:1023D0004646464600000000107AFF1FF8B5044646
:1023E00048880D46010A082954D2DFE801F0530459
:1023F000091753534951D4F81012207C0A6819E088
:10240000207C02260028D4F8140205D0C16A684650
:102410008847014646704AE0816AF8E7C1B206295A
:1024200026D2DFE801F0030A0F14191ED4F81012A7
:10243000207C4A686946904718E0D4F81012207C46
:102440008A68F7E7D4F81012207CCA68F2E7D4F85B
:102450001012207C0A69EDE7D4F81012207C4A693A
:10246000E8E7D4F81012207C8A69E3E701461EE011
:10247000C1B2D4F814026A46836B20469847F5E748
:10248000207C38B9D4F81402416B68468847EDE7E0
:10249000207C20B129462046FFF7C1FEF8BDD4F8C4
:1024A0001402016B68468847014607204870BDF852
:1024B00000000028F2D0EA88002AEFD0824200D93A
:1024C0000246ADF800202046FFF7CEFEF8BD70B5FD
:1024D000002300281DD00446002502E06D1CEDB24B
:1024E000641C2678002EF9D1022404EB45041480E4
:1024F000CC545B1C0322CA5400245B1C06E0CA5463
:102500005B1CDAB28C54521CD3B2401C0278002AF5
:10251000F5D170BD10B580B1D0F8143213B10023DD
:10252000C0F8143209B1C0F81012012180F8FC1172
:10253000027000F0A9F8002010BD022010BD10B5F7
:10254000D0F82002FEF7C7F8002010BD10B5D0F873
:102550002002FEF79EF8002010BD2DE9F04117463D
:10256000044641B1D4F8140242698AB394F8FC01DC
:10257000032842D043E0D4F8F411002504F11400FC
:10258000022933D1D0E902639E4207D9F31A83604E
:102590009AB239462046FFF73AFE12E04068B0FB97
:1025A000F3F103FB1101A1B9984212D3D4F8F81149
:1025B00088420ED2002211462046FFF728FEC4F8BA
:1025C000F85100231A461946204600F0A9F80DE0FC
:1025D00012E0D4F81402C16829B194F8FC01032870
:1025E00001D1204688472046FFF733FE94F80002C9
:1025F000012804D184F8005201E0204690470020D1
:10260000BDE8F08170B51546044641B1D4F8140216
:1026100082693AB394F8FC01032824D025E0D4F869
:10262000F41104F5827003291FD1D0E902218A42F6
:102630000BD9531A83600846834200D303469AB2EB
:1026400029462046FFF7DBFD0FE0D4F814020169AC
:1026500029B194F8FC01032801D12046884720467F
:10266000FFF70FFE01E020469047002070BD0020DC
:10267000704710B5012180F8FC11D0F814220179BF
:1026800052689047002010BD10B5017829BB14494D
:102690000222C1F8AC03C0F820124FF0A04008603D
:1026A000072048600020C1E90320C1E9050201229A
:1026B000C861C1E9080288620846FEF7E3FA802192
:1026C0000748FDF7A5FF402200210548FDF7A4FFBC
:1026D000802201210248FDF79FFF002010BD00006D
:1026E000400100200A0601F07F01D0F82002C1EB72
:1026F000C10100EB810002D590F83200704790F8DC
:10270000D6017047002070470020704710B51C4666
:102710001346D0F820022246FEF705F8002010BD2F
:1027200010B5D0F82002FEF729F8002010BD70B5D2
:102730000022044640231146FFF7E8FF40252B46C0
:10274000002280212046C4F81051FFF7DFFF01204E
:10275000256284F8FC01D4F8180228B1D4F81402D8
:102760002179426820469047002070BD90F8FD1105
:1027700080F8FC110020704710B590F8FC11032977
:1027800004D1D0F81412C96901B18847002010BDE6
:1027900001740020704710B5D0F82002FEF71CFB32
:1027A000002010BD70B5044600F50270054600F02B
:1027B00044F80120C4F8F401B4F80E02C4F8F8019A
:1027C00094F8080210F01F010AD001290DD0022947
:1027D00010D000F08001204600F011F8002070BDFC
:1027E0002946204600F08FF8F8E72946204600F0F9
:1027F00071F9F3E72946204600F0FEF8EEE710B540
:10280000D0F82002FDF7E9FF002010BD10B5D0F888
:102810002002FEF7FAFA002010BD90F8FC1180F8B3
:10282000FD11042180F8FC110020704710B5D0F88C
:102830002002FEF702F8002010BD0A7802704A78E4
:1028400042708A78CB7802EB032242800A794B7976
:1028500002EB032282808A79C97902EB0121C180CF
:1028600070470246002011B1C2F8141270470220CE
:10287000704710B5D0F8142202241AB1126890479C
:1028800000B90024204610BD70B50E461A4D897857
:1028900004462970012928D894F8FC01022802D0A6
:1028A000032822D105E099B10320616084F8FC017E
:1028B00009E091B1606888420AD0C1B22046FFF7B2
:1028C00097FC297861602046FFF7D3FF02280CD0DF
:1028D0002046BDE87040FFF7D4BC022084F8FC011C
:1028E00020466160FFF784FCF2E731462046BDE8F0
:1028F0007040FFF794BC00000400002010B5FFF703
:1029000085FF002010BD2DE9F04100264B78012500
:1029100032460A2B43D2DFE803F03C5842514208CA
:1029200005422A27FFF75AFD63E004468888C8B9A4
:10293000C888B8B9887800F07F0794F8FC010328AC
:1029400010D084F8FE7139462046FFF724FF204658
:10295000FFF797FC1FB1022084F8FC0149E084F8DE
:10296000FC5146E020461AE0FFF78EFF41E0CB889D
:10297000012B14D190F8FC31022B02D0032B0ED185
:1029800004E08260012200F1080114E00122011D2F
:1029900011E090F8FC21022A04D0032A02D0FFF7AC
:1029A0003EFC26E0C560D0F8041209B10321C160E5
:1029B000022200F10C01FFF757FC1AE00446488898
:1029C000012816D1C4F804520BE0044690F8FC012B
:1029D000022801D00328C5D14888012809D1C4F8AC
:1029E0000422D4F814028268204690472046FFF75C
:1029F00048FC3046BDE8F08170B50D4604462878A5
:102A000000260979C0F34110012806D06878A0B3E8
:102A100001281FD003283FD107E0D4F8140229462B
:102A2000826820469047002070BD94F8FC0102287F
:102A300017D003282CD1688828B921B1802902D069
:102A40002046FFF7DCFED4F81402294682682046AF
:102A5000904713E094F8FC01022802D0032817D114
:102A600003E0C9B180291BD116E06888A0B94806E7
:102A700004D02046FFF763FDE5E703E02046FFF7BB
:102A800000FC09E094F8FC01022807D003280BD0D1
:102A900029462046FFF7C3FB304670BD4806FBD0F1
:102AA0002046FFF7ACFEF7E7080601F07F0004EBD5
:102AB000001501D5143501E005F582752046FFF7B4
:102AC00011FE00B101202860022229462046FFF7AE
:102AD000CBFBE1E770B5054690F8FC010C460328F6
:102AE0000DD1207901280AD8D5F814028268284629
:102AF0009047E08830B92846FFF7C3FB02E028463C
:102B0000FFF78DFB002070BD30B54C781D4B0122C6
:102B10000D78AA40012CD0F81C4818D044EA024293
:102B2000C0F81C280A7800EB4210D0F8002B1204E1
:102B30000BD4D0F8002B0C89C4F30A042243C978C3
:102B400043EA81410A43C0F8002B002030BD92B215
:102B50001443C0F81C480C7800EB4410D0F800294E
:102B60001204F2D4D0F800290D89C5F30A052A43CE
:102B7000C978890441EA84510A431A43C0F80029FC
:102B8000E3E7000000800010D0F800196FF30A019D
:102B9000C0F80019D0F80818C1F34101022905D185
:102BA000D0F8001941F00301C0F80019D0F804185A
:102BB00041F48071C0F804180020704770B50446D5
:102BC000049D06990B9801290CD0E06840F0400064
:102BD000E060204600F028F84FF48030A063012D1B
:102BE00016D01DE0A16B21F48031A163E1680D4A8C
:102BF0001140E160E16821F44011E160012803D156
:102C0000E06840F48010E060204600F00DF8E6E750
:102C1000A06840F00C00A060A06840F02000A06018
:102C2000002070BDBFFFBDFF01220C4902E0521C15
:102C30008A420BD80369002BF9DA026942F00102DB
:102C40000261012204E0521C8A4201D9032070472C
:102C50000369DB07F7D1002070470000400D030037
:102C600030B54D7801220C7802FA04F3012DD0F82A
:102C70003C4816D024EA0343C0F83C38D0F81C384E
:102C80000C78A24023EA0242C0F81C28097800EB25
:102C90004110D0F8001B21F40041C0F8001B0020B7
:102CA00030BD9BB29C43C0F83C48D0F81C380C782F
:102CB000A24092B29343C0F81C38097800EB41104F
:102CC000D0F8001921F40041C0F80019E7E710B569
:102CD000D0F8041821F00201C0F804180320FDF711
:102CE00023FB002010BD10B5D0F8041841F00201FC
:102CF000C0F804180320FDF717FB002010BD0000EA
:102D00002DE9F0470E460446DDE90A0A0025DDF804
:102D10003480089FA16B41F40021A163B8F1000F3A
:102D200003D1A16B41F40011A1634FF00009C4F875
:102D3000009ED4F80018C4F80018012804D0D4F874
:102D4000000840F0030004E0D4F800080BB140F0A4
:102D50000100C4F800081021204600F0BDFA20460A
:102D600000F0AAFA4846C4F81098C4F814984FF036
:102D7000FF31C4F81818C4F81C984FF0904CFF238A
:102D800010E000BF04EB4511D1F80029002A02DA57
:102D9000C1F800C901E0C1F80009C1F81009C1F883
:102DA00008396D1CAE42EDD800210FE004EB411252
:102DB000D2F8005B002D02DAC2F800CB01E0C2F8C5
:102DC000000BC2F8100BC2F8083B491C8E42EDD82C
:102DD000D4F8101821F48071C4F81018012F0AD10A
:102DE0001449C4F83018D4F83018134A1143C4F801
:102DF0003018D4F83018A0616FF0804060611FB9BE
:102E0000A06940F01000A061A0690C490843A061CE
:102E1000BAF1000F03D0A06940F00800A061B8F13A
:102E2000010F03D1A06906490843A0610020BDE855
:102E3000F0870000000180000300010000383C80A2
:102E400004000040816821F001018160002070478A
:102E500030B54D784D4C0B7800EB4313012D28D045
:102E6000D3F8105B6FF31205C3F8105B0B7800EB1F
:102E70004313D3F8105B2540C3F8105B4B690BB1CB
:102E80008B684B610B7800EB4313D3F8104B44F481
:102E90000024C3F8104B0B7800EB4313D3F8104B0E
:102EA0008D68C5F312052C43C3F8104B012A5CD082
:102EB00061E04D69002DD3F810593BD06FF3120536
:102EC000C3F810590B7800EB4313D3F81059254081
:102ED000C3F810594C698B689C4200D94B610B7840
:102EE00000EB4313D3F8104944F40024C3F810490D
:102EF0000B7800EB4313D3F810494D69C5F3120565
:102F000054EA0504C3F81049012A27D04A693AB1A6
:102F1000D0F834280C780123A3401A43C0F8342891
:102F2000097800EB4110D0F8001941F00441C0F8D5
:102F3000001929E02540C3F810590B7800EB431322
:102F4000D3F8104944F40024C3F810490B7800EB7F
:102F50004313D3F810496FF31204D3E70B7800EB57
:102F600043130A69C3F81429DAE70B7800EB43131B
:102F7000CA68C3F8142B097800EB4110D0F8001B85
:102F800041F00441C0F8001B002030BDFFFF07E006
:102F90000023C0F8103BD0F8103B43F40023C0F8E6
:102FA000103BD0F8103B43F01803C0F8103BD0F8AA
:102FB000103B43F0C043C0F8103B012905D1C0F8D5
:102FC000142B4FF08021C0F8001B002070474B7875
:102FD0000A7800EB4212012B0BD0D2F8003B23F40D
:102FE0000013C2F8003BCA78032A17D0022A15D072
:102FF0001DE0D2F8003923F40013C2F80039CA7872
:10300000032A01D0022A12D1097800EB4110D0F82E
:10301000001941F08051C0F8001908E0097800EB70
:103020004110D0F8001B41F08051C0F8001B002077
:1030300070474B780A7800EB4212012B14D0D2F87B
:10304000003B002B05DBD2F8003B23F08043C2F8A5
:10305000003B097800EB4110D0F8001B41F400114F
:10306000C0F8001B00207047D2F80039002B05DBA8
:10307000D2F8003923F08043C2F80039097800EB18
:103080004110D0F8001941F40011C0F80019E9E727
:1030900078B54E786FF06045834C0B7800EB4313A6
:1030A000012E2FD0D3F8106B6FF31206C3F8106BFC
:1030B0000B7800EB4313D3F8106B2640C3F8106B6A
:1030C0004B69002B7DD08C6823445B1EB3FBF4F36B
:1030D0009BB20C7800EB4414D4F8106B05EAC3459E
:1030E0002E43C4F8106B0C7800EB4414D4F8105B3A
:1030F0008E685E43C6F312031D43C4F8105B012AB9
:1031000073D0B2E04E6966B3D3F810696FF312065C
:10311000C3F810690B7800EB4313D3F8106926400D
:10312000C3F810694C698B681C44641EB4FBF3F34C
:1031300005EAC3440B7800EB4313D3F810592C4332
:10314000C3F810490B7800EB4313D3F810494D69CD
:10315000C5F312052C43C3F81049CB78012B16D0C8
:1031600027E0D3F810592540C3F810590B7800EB2D
:103170004313D3F8104944F40024C3F810490B78E2
:1031800000EB4313D3F810496FF312040FE00B78F0
:1031900000EB4313D3F8104924F0C044C3F810499E
:1031A0000B7800EB4313D3F8104944F00054C3F8F4
:1031B0001049012A12D0CB78012B17D04B692BB3C1
:1031C00000E037E0D0F834380D780124AC402343D8
:1031D000C0F83438CB78012B08D017E00C7800EB1E
:1031E00044140B69C4F81439F4E738E0D0F808380F
:1031F000DB050B7800EB4313D3F8004902D444F00D
:10320000005401E044F08054C3F800490B7800EB0F
:103210004313D3F8004944F00444C3F80049CB7881
:10322000012B3ED100928A8A93B20A78C96800F0D5
:10323000E7F836E00B7800EB4313D3F8104B8D68BA
:10324000C5F312052C43C3F8104B0B7800EB431366
:10325000D3F8104B44F40024C3F8104B4FE70B781D
:1032600000EB4313CA68C3F8142BCA78012A0FD1A4
:10327000D0F80828D2050A7800EB4212D2F8003BB9
:1032800002D443F0005301E043F08053C2F8003B06
:10329000097800EB4110D0F8001B41F00441C0F860
:1032A000001B002078BD0000FFFF07E0816841F0AF
:1032B0000101816000207047002110220261054A4F
:1032C000491C914201D9032070470369DB06F7D4FA
:1032D00000207047400D03000022202343EA8111A3
:1032E00001610549521C8A4201D9032070470369D4
:1032F0009B06F7D400207047400D03000021D0F852
:10330000082812F0060F15D0D0F80828C2F34102A1
:10331000012A0CD0D0F80828C2F34102032A06D0B3
:10332000D0F80808C0F34100022802D002E00321CF
:1033300000E0022108467047406900F00100704734
:10334000D0F81818D0F81C08084080B27047D0F8A0
:103350001818D0F81C080840000C7047D0F8103836
:10336000D0F83428CA4002F0010243EAC21200EB4E
:103370004110D0F808091040704700EB4111D1F816
:10338000081BD0F81408084070474169806908405C
:10339000704710B503460020D21C920803F58053F5
:1033A00003E01C6841F8044B401C9042F9D30846E6
:1033B00010BD10B5C26822F0C042C260012901D020
:1033C00021B107E0C16841F0005102E0C16841F05D
:1033D0008041C1603220FCF7A7FF002010BDD0F86B
:1033E000002822F4FE62C0F80028D0F800284FF42C
:1033F000FE6303EA01110A43C0F800280020704769
:1034000030B50024039D6DB9DB1C9B0800EB023036
:1034100000F5805004E000BF51F8042B0260641CEA
:103420009C42F9D3002030BD02E008C8121F08C139
:10343000002AFAD170477047002001E001C1121F35
:10344000002AFBD17047000010B5002821D0114B95
:103450000022001F196803E0814203D80A46496828
:103460000029F9D152B11368841A9C4204D1006832
:1034700018441060104602E0506000E0186039B156
:1034800002680B1A934203D10B681A440260496820
:10349000416010BD380100201FB5FDF745F8FEF76B
:1034A000F9FBFEF7F7FA7A49784808600846FEF714
:1034B000B8F8774877490C304FF0000B7F22016055
:1034C000C0E901B2FF22C0E9032BC0F814B0C0F874
:1034D00018B0FEF75BF9FEF727FB70496E480860ED
:1034E0000846FCF7F9FEFEF74BFC6C4808384178BB
:1034F00019B1017841F001010170654E02272C36A7
:10350000DFF89C81814606F140044FF0130A2770D2
:10351000707812281FD199F800004D4640F0010044
:1035200080F0010089F80000FEF72AFC687828B1D5
:10353000287840F0010028706878E07084F801A0D5
:1035400028785349A07022226C31D8F80000FEF789
:10355000DFFDFCF795FE7078012828D14C48FEF776
:103560002CF8C9F8040002254948FEF726F8C9F8E6
:103570000400D9F804006055D9F80400020A601963
:103580004270D9F80420120C8270D9F804102D1D55
:10359000090EEDB2C170222DE6D33D49677022229B
:1035A0006C31D8F80000FEF7B3FDFCF769FE7078C7
:1035B00003282BD13648012269460C30FEF7C2F8A9
:1035C0003348012203A90C30FEF79AF89DF8020057
:1035D000A0709DF80100E0709DF8000020719DF83A
:1035E0000E0060719DF80C00A0719DF80D00E07157
:1035F0009DF80F00207204202549607022226C3152
:10360000D8F80000FEF784FDFCF73AFE7078052834
:1036100026D1F07E8DF80200307F8DF80100707F9A
:103620008DF800001A48CDF804B0012269460C302C
:10363000CDF808B0FEF774F9B07F8DF80E00F07F7A
:103640008DF80C0096F820008DF80D0096F82100FA
:103650008DF80F000E48012203A90C30FEF7FCF88C
:1036600084F801A099F800000949A0704D46222273
:103670006C31D8F80000FEF74BFD287840F00800C8
:1036800080F008002870FCF7FBFD40E700080650BA
:10369000140700200028004000300240AC00002049
:1036A00030010020F0B50B30154D20F0070100244B
:1036B000144A0FE003688B420BD38B4205D95E1A84
:1036C00043184768C3E9006700E04368136002C01D
:1036D00004E0021D10680028ECD12046002802D129
:1036E000286808B10020F0BD064A07481060074A64
:1036F000121A22F00702C0E9002401202860D7E74F
:103700003C01002038010020C4090020C00D002029
:103710000000000001020304010203040607080977
:103720004037000800000020400100002802000887
:10373000FC37000840010020800E000038340008EB
:103740008113B5201B08470413392142081A790C4C
:103750001A15041A2304C11A9D1069045AA91C14CD
:1037600009022913010125C03209042B0203121496
:10377000211101140122261607058103402D20077F
:10378000050107A91A011F130A063202031440019A
:10379000280801010201020203041702030304C105
:1037A000221B08F9041305231B0825041A5D041ABB
:1037B00099101ACD044F0403090412014C15830417
:1037C0005057193A1A03551206100BFF0901A101AF
:1037D00085010901152809250175089521B1820E79
:1037E0002F91828502090210248182C022F81C20B8
:0C37F000A102F019041AB50451931BB794
:040000050800018569
:00000001FF
